:020000040800F2
:10000000805E00206102000833340008E92F0008F8
:1000100031340008FB0900086D3F000800000000B3
:10002000000000000000000000000000A101000826
:10003000510C000800000000FD010008E53900082F
:100040007B0200087B0200087B0200087B0200089C
:100050007B0200087B0200087B0200087B0200088C
:100060007B0200087B0200087B0200087B0200087C
:100070007B0200087B0200087B020008090A0008D6
:100080007B0200087B0200087B0200087B0200085C
:10009000FD0900087B0200087B0200087B020008C3
:1000A0007B0200087B0200087B0200087B0200083C
:1000B000A93A0008B53A00087B0200087B02000854
:1000C0007B0200087B0200087B0200087B0200081C
:1000D0007B0200087B0200087B0200087B0200080C
:1000E000530C00087B0200087B0200087B0200081A
:1000F0007B0200087B0200087B0200087B020008EC
:100100007B0200087B0200087B0200087B020008DB
:10011000113C00087B020008C13A00087B0200087D
:100120007B0200087B0200087B0200087B020008BB
:100130007B02000800000000000000007B020008B5
:100140007B0200087B0200087B0200087B0200089B
:100150007B0200087B0200087B0200087B0200088B
:100160007B0200087B0200087B0200087B0200087B
:100170007B0200087B020008000000000000000075
:100180007B0200087B020008DFF810D000F0F4FBCF
:10019000004800470D5F0008AFF30080805E00203C
:1001A0002C4B19680868B0E8F04F80F30988BFF35A
:1001B0006F8F4FF0000080F311887047000000003F
:1001C00008480068006880F308884FF0000080F35A
:1001D000148862B661B6BFF34F8FBFF36F8F00DF35
:1001E00000BF00BF08ED00E0DFF80C00016841F43B
:1001F00070010160704700BF88ED00E0EFF30980F7
:10020000BFF36F8F134B1A681EF0100F08BF20ED5D
:10021000108A20E9F04F106009B44FF0500080F3CD
:100220001188BFF34F8FBFF36F8F07F0CBF94FF0FB
:10023000000080F3118809BC19680868B0E8F04F25
:100240001EF0100F08BFB0EC108A80F30988BFF3CE
:100250006F8F70470C040020EFF30580704700009B
:100260000648804706480047FEE7FEE7FEE7FEE750
:10027000FEE7FEE7FEE7FEE7FEE7FEE7993A000845
:10028000890100082DE9F05F0546002092469B4653
:1002900088460646814640241BE02846414647469C
:1002A000224600F09AFA53465A46C01A914110D39A
:1002B00011461846224600F081FA2D1A67EB010814
:1002C0004F4622460120002100F078FA17EB000982
:1002D0004E41201EA4F10104DFDC484631462A4687
:1002E0004346BDE8F09F40EA01039B0703D009E0C5
:1002F00008C9121F08C0042AFAD203E011F8013B12
:1003000000F8013B521EF9D27047D2B201E000F86A
:10031000012B491EFBD270470022F6E710B51346A9
:100320000A4604461946FFF7F0FF204610BD2DE9A6
:10033000FE4F804681EA0300C00F0C46009021F07A
:10034000004123F00045B8EB0200A94105D2404628
:10035000214690461C460B46024623F000401043BF
:1003600047D0270DC7F30A00C3F30A510290401A81
:10037000019040286BDAC3F3130040F4801B00980F
:10038000924620B10023D2EB030A63EB0B0B0198DA
:100390005946C0F14002504600F010FA06460D469C
:1003A00050465946019A00F028FA10EB08006141C6
:1003B000002487EA115284EAE7731A4340D0009A76
:1003C00062B3019A012A4FEA075215DC001B61EB68
:1003D00002014FF0004202EA0752CDE90042001C40
:1003E00041F5801132462B4600F05FFA03B0BDE8BC
:1003F000F08F40462146F9E7001B61EB0201001C2B
:1004000041F5801300185B412018A2F5001747EB57
:10041000030140EAD570B6196D4111E06D084FEA4D
:10042000360645EAC0754FEA0752001B61EB020130
:10043000001C41F5801149084FEA30000019514174
:1004400032462B4603B0BDE8F04F00F01FBA0098CB
:10045000012240000023D0EB020263EBE07300981E
:1004600021464FEAE074B8EB000061EB0401E9E7D4
:1004700083F000435BE781F0004158E72DE9FE4F30
:1004800081EA030404F0004421F0004100944FF09D
:10049000000B23F0004350EA01045ED052EA03044B
:1004A0005BD0C3F30A54C1F30A552C44A4F2F334CD
:1004B0000194A0FB0254C1F3130141F48011C3F372
:1004C000130343F4801301FB024400FB034E840A30
:1004D000970A44EA815447EA8357A4FB07680295C8
:1004E0008D0A05FB07854FEA932C04FB0C54270566
:1004F000029D4FEA065847EA1637B5EB08056EEB42
:10050000070C870E920E47EA811742EA8312A7FB77
:100510000201B6EB0B0164EB00042B0D43EA0C3334
:100520005E1844EB1C50DA465146E7FB0201C5F366
:1005300013044FEA0B3343EA14534FEA0432019C8D
:1005400043EA0603A4F10C040294009CCDE900B434
:1005500000F0ABF903B0BDE8F08F00200146F9E7E9
:100560002DE9F04D81EA030404F0004B21F0004531
:1005700014464FF0000A23F0004150EA050220D053
:1005800054EA01021DD0C5F30A570246C5F313030E
:10059000C1F31300C1F30A5640F4801543F48013ED
:1005A000A7EB0608101BD64608F2FD3873EB0500D2
:1005B00002D308F1010801E092185B41B8F1000F85
:1005C00003DA00200146BDE8F08D00204FF48011D1
:1005D000064684460EE0171B73EB050705D3121B76
:1005E00063EB050306434CEA010C49084FEA30006F
:1005F00092185B4150EA0107EDD152EA030012D094
:1006000082EA040083EA0501084305D0101BAB41D0
:1006100006D20122002306E000224FF0004302E050
:100620006FF0010253101AEB06004CEB085110EB6F
:100630000A0041EB0B01BDE8F04D00F027B90EB503
:10064000C10F80EAE0700844CA07002140F233433A
:100650008DE80E000A460B4600F027F903B000BDF6
:100660000EB540F2334102910021CDE900110A4656
:100670000B4600F01AF903B000BD70B5C1F30A5281
:1006800001F000450024C1F3130140F2FF3341F4AF
:1006900080119A4201DA002070BD40F233439A4241
:1006A000A2F2334203DC524200F097F800E090409F
:1006B0002C43F1D0404270BD70B5C1F30A5201F035
:1006C00000450024C1F3130140F2FF3341F48011CF
:1006D0009A4202DA0020014670BD40F233439A424A
:1006E000A2F2334203DC524200F077F801E000F05E
:1006F00065F82C43F0D00023D0EB030063EB01013D
:1007000070BD00F0004230F000400AD0C10D01F58C
:100710006071C0F3160042EA0151C208400711435C
:10072000704700200146704730B5041E71F1000487
:1007300004DB4FF00044404264EB0101141E73F1EE
:10074000000405DB1C464FF00043524263EB0403F8
:10075000994208BF904230BD01F0004330B421F00F
:10076000004150EA010206D00A0DA2F56072C1F301
:100770001301002A02DC30BC00207047440F44EA19
:10078000C104C100E01830BC00EBC25000F047B813
:1007900030B50B46014600202022012409E021FA51
:1007A00002F59D4205D303FA02F5491B04FA02F54E
:1007B0002844151EA2F10102F1DC30BD202A04DB21
:1007C000203A00FA02F1002070479140C2F1200364
:1007D00020FA03F3194390407047202A04DB203AA3
:1007E00021FA02F00021704721FA02F3D040C2F151
:1007F00020029140084319467047202A06DBCB1798
:10080000203A41FA02F043EAE07306E041FA02F3CB
:10081000D040C2F120029140084319467047002998
:10082000A8BF7047401C490008BF20F00100704776
:1008300010B4B0FA80FC00FA0CF050EA010404BFD6
:1008400010BC704749B1CCF1200421FA04F411FA2C
:100850000CF118BF012121430843A3EB0C01CB1D70
:100860004FEA00614FEA102042BF002010BC7047E1
:1008700000EBC35010440029A4BF10BC7047401CBB
:10088000490008BF20F0010010BC704710B5141ECD
:1008900073F1000408DA401C41F1000192185B4139
:1008A0001A4301D120F0010010BD2DE9F04D924610
:1008B0009B4611B1B1FA81F202E0B0FA80F2203227
:1008C0009046FFF77BFF04460F4640EA0A0041EAE4
:1008D0000B0153465A46084313D0114653EA010010
:1008E00019D0C8F140025046FFF777FF05460E4683
:1008F000504659464246FFF761FF084305D00120A4
:1009000004E020463946BDE8F08D0020054346EA64
:10091000E0762C4337430A986305E40AA0EB08000D
:100920000022FD0A44EA47540A3002D5002001465D
:10093000E9E7010510196941DDE908450019694138
:10094000BDE8F04DA2E7C1F30A52C1F3130140F232
:10095000FF3341F480119A4202DA002001467047C9
:1009600040F233439A42A2F2334202DC5242FFF792
:1009700034BFFFF723BF0000064C074D06E0E068D8
:1009800040F0010394E8070098471034AC42F6D3D6
:10099000FFF7FEFBD0850008F085000870B58D18C4
:1009A00010F8014B14F0030201D110F8012B2311B0
:1009B00006D110F8013B03E010F8016B01F8016B60
:1009C000521EF9D1ABB110F8012B04F00C048A1AB5
:1009D0000C2C03D0A2EB84129B1C08E010F8014BF6
:1009E000A2EB0422F8E712F8014B01F8014B5B1E61
:1009F000F9D5A942D4D3002070BDFEE7014800F02C
:100A0000C0BA0000CC060020014800F04DBD000037
:100A1000A009002001681823CAB2103AB2FBF3F211
:100A2000054B6FF30901032A9B5CC36500D9091DBF
:100A300081650846704700001C85000810B5014616
:100A400000208B698A6A4FF0C07453B1B3F5005F20
:100A500015D072B1012A0CD0022A0AD0032A09D17A
:100A600004E01AB1012A06D0022A03D1C96AC901D9
:100A700000D5012010BDC96AA142FAD010BD002ADC
:100A8000F7D0012AF2D0022AF3D0032AF3D010BD06
:100A900030B50468256825F4802525600468636006
:100AA0008368402B036803D099600068C26030BD42
:100AB0009A600068C16030BD70B506F0E3F905F0DA
:100AC000DDFB04F0BDFF5649884203D005F0DEFB94
:100AD00005F0E0F806F0D6F9012004F073FE401CA2
:100AE00015D005F0C3FB4F4C2820E08104F1D8005D
:100AF00004F08AFC04F1D8010025C87960720978F5
:100B0000A172022804D080B101281BD029E0FEE7A1
:100B10000920E0724FF4167060614FF4E170A0613B
:100B200040F24C40E061404818E01C20E07241F285
:100B30007070606140F6D860A06140F63C70E06182
:100B40003A480BE00E20E07240F2145060614FF41E
:100B50004870A06140F27260E06135480021C4E94C
:100B60000C0130494FF01F302431486020620846A4
:100B700004F056FD44F26500A08105F052F8A0890A
:100B800005F07AF84DF6CA6005F041F8182004F037
:100B900055FD0121084605F025F8032004F0E8FF83
:100BA0000120607060710146224804F0C8FF60783F
:100BB000012808D1204B214A2149224804F0B0FFE6
:100BC000607801281BD0607904F0A4FF607920725E
:100BD00004F054FDA570282001F035F8114A0020DA
:100BE0001949383242F82010401C2828FADB00222C
:100BF0000821032005F038FA1449086070BD6079B7
:100C000040F4004004F086FF6079E07118B9A079E3
:100C100040F08000A07104F031FD0520A070DAE7FB
:100C20003001CADEC80200200000681000006C39E4
:100C30000000381880D02324614A00088D4A00083B
:100C40006D4A0008994A000880841E0018000020A0
:100C5000704710B54FF4005000F048FEBDE810405A
:100C60004FF4804000F042BE4109890001F1E021CB
:100C7000D1F8001100F01F0201209040014201D084
:100C8000012070470020704772B6FEE790F82020E0
:100C9000012A07D0022A05D0416A41F4802141622D
:100CA00001207047006842690A4342610020704792
:100CB000F0B590F820500468A468012D05D0022DED
:100CC00003D0416A41F4802157E014F0406F01D114
:100CD000E5004FD5C4F301640125A5401D608B6874
:100CE0004FF4C0759BB1CE6833434E6843EAC603E8
:100CF000066805EB0417F3514FF4C273076803EB62
:100D000004130E69FE50097D012905D009E00E8803
:100D1000CB6843EA4653EBE70168CE5846F4807649
:100D2000CE501179D379567941EA036193791B0446
:100D300043EA062319434FF4C676036806EB04160C
:100D400099511178D37841EA0361937852781B0462
:100D500043EA022211434FF4C473026803EB041305
:100D6000D150006805EB0411425842F00102425094
:100D70000020F0BD416A41F4001141620120F0BD44
:100D800010B590F82020012A07D0022A05D0416A28
:100D900041F480214162012010BD3B48D0F800227F
:100DA00042F00102C0F80022D0F8002222F47C5266
:100DB000C0F80022D0F800224B6A42EA0322C0F8B1
:100DC00000220A7D02F01F0301229A40D0F81C3253
:100DD0009343C0F81C32CB69B3B9D0F80C329343BB
:100DE000C0F80C328C894B6864F31F434C6900EBEC
:100DF000C404C4F840320C890B6864F31F434C6987
:100E000000EBC404C4F84432CB69012B16D1D0F8EE
:100E10000C321343C0F80C320C884B6864F31F4348
:100E20004C6900EBC404C4F840320C89CB6864F30D
:100E30001F434C6900EBC404C4F844328B69002B97
:100E4000D0F804320ED01343C0F804320B69002BE3
:100E5000D0F8143208D01343C0F81432096A0129BB
:100E600004D008E09343EFE79343F5E7D0F81C1272
:100E70001143C0F81C12D0F8001221F00101C0F893
:100E80000012002010BD000000640040704770B5E3
:100E900090F82040012C05D0022C03D0416A41F487
:100EA000802128E0046809B32469A40720D04FF406
:100EB000D874056804EB01142D5915F004059560EC
:100EC00005682D591AD0ED08556005682C5904F0B5
:100ED0000204D4604FF4DA74056804EB01142E594F
:100EE00006F00F06082E0CD308250DE0E468DCE7B9
:100EF000416A41F400114162012070BD6D0D156021
:100F0000E3E72D5905F00F05156105682D59C5F367
:100F10000725956105682C59240C54614FF4DC7247
:100F2000046802EB0112A4581C700468A458240A37
:100F30005C700468A458240C9C700468A258120EBB
:100F4000DA704FF4DE72046802EB0112A4581C71CF
:100F50000468A458240A5C710468A458240C9C7189
:100F60000468A258120EDA71006829B1016941F0D3
:100F700020010161002070BDC16841F02001C16005
:100F8000F8E72DE9F05F0546006800244669D0F8CF
:100F900004908768D0F80CB0D0F810A0D0F8188072
:100FA000F10748D0F90714D001218160B80703D5B3
:100FB000284600F018FA0CE0780702D54FF40064D8
:100FC00007E0380702D54FF4805402E0284600F0CD
:100FD00009FAF80516D529684FF480708860B805BD
:100FE00003D5284600F001FA0CE0780502D544F458
:100FF000005407E0380502D544F4804402E0284656
:1010000000F0F2F9F80316D529684FF480308860B3
:10101000B80303D5284600F0EAF90CE0780302D5BE
:1010200044F4004407E0380302D544F4803402E07D
:10103000284600F0DBF9300707D55FEACB6004D51E
:101040002968102044F40074C86070074FF0080746
:1010500007D55FEA0B7004D52868C760284600F002
:101060005FF9B00706D52868C068800702D0284617
:1010700000F058F9700607D55FEACA6004D5296800
:10108000102044F480640861B00607D55FEA0A7056
:1010900004D528680761284600F076F9F00606D5E1
:1010A00028680069800702D0284600F06EF9B00376
:1010B00008D55FEAC96005D5296810204860284630
:1010C00000F064F9F00307D55FEA097004D52868D9
:1010D0004760284600F08CF9300446D55FEA497035
:1010E00040D5F00504D55FEAC87001D044F0010492
:1010F000B00504D55FEA887001D544F0020470059C
:1011000004D55FEA487001D544F00404300529D5C0
:1011100018F0700F26D008F07000402815D006DCBB
:10112000102809D020280AD0302816D10AE05028EB
:101130000ED0602811D10EE044F008040DE044F018
:1011400010040AE044F0200407E044F0400404E006
:1011500044F0800401E044F480742868816921F03F
:1011600070018161296804204860002C05D0686AFC
:10117000204368622846FFF789FEBDE8F09F70B5FE
:10118000040003D094F8200010B104E0012070BDE9
:10119000204600F081F82068016841F001010160FB
:1011A00000F0AAFC0546052604E000F0A5FC401B63
:1011B0000A2811D820684068C007F6D02068016866
:1011C00021F00201016000F097FC05460BE000F001
:1011D00093FC401B0A2806D9606A40F40030606224
:1011E00084F82060D2E7206840688007EFD4207E32
:1011F0000128206801683DD021F080010160607EF7
:1012000001282068016838D021F040010160A07EEB
:1012100001282068016833D021F020010160E07EC0
:101220000128206801682ED041F010010160207F64
:1012300001282068016829D021F008010160607F41
:1012400001282068016824D021F004010160D4E95C
:1012500002010843D4E90412114308436168491E9E
:1012600008432168C86100206062012084F82000E2
:10127000002070BD41F08001C0E741F04001C5E7AA
:1012800041F02001CAE721F01001CFE741F0080149
:10129000D4E741F00401D9E710B586B00446142123
:1012A0006846FFF739F81B492068884230D11A4850
:1012B000016841F000710160006800F00070059065
:1012C00015481038016841F0010101600068134CB5
:1012D00000F0010005904FF4805000900220019032
:1012E00001200290032003900920049069462046C3
:1012F00000F008FBE11400916946204600F002FB73
:1013000000220621142000F0ABFC142000F09BFC0E
:1013100006B010BD006400404038024000000240AA
:10132000704700001CB5164B164A0021FFF7AFFDB1
:1013300010B1FFF7A9FC1CBD12484168A1F52A4273
:10134000A03AF8D181680429F5D100690828F2D1C2
:101350000B490B4C002308888A7840BA000440EA05
:101360000220C978343C0843606101218DF80410E3
:1013700000901A466946E06904F0A2FE1CBD000018
:10138000340000209004002070477047704770B50B
:10139000044690F82000012804D0606A40F4002040
:1013A000606217E0022084F820002068016821F0C4
:1013B0000101016000F0A0FB05460DE000F09CFB80
:1013C000401B0A2808D9606A40F40030606205209A
:1013D00084F82000012070BD20684068C007EDD16E
:1013E000606270BD704770477047704770477047C4
:1013F00070472DE9F0410446876D00F07DFB0546FE
:1014000094F835000026022806D08020606584F814
:1014100034600120BDE8F0812068016821F01601E8
:1014200001602068416921F080014161206C08B9A8
:10143000A06C20B12068016821F0080101602068DB
:10144000016821F0010101600CE000F055FB401B38
:10145000052807D920206065032084F8350084F82A
:101460003460D7E720680068C007EED194F85C10BC
:101470003F208840B860012084F8350084F834604B
:101480000020C7E790F83510022903D0802141657C
:1014900001207047052180F835100068016821F0AF
:1014A00001010160002070472DE9F84304464FF028
:1014B0000009CDF8009063484FF41651A56D0068FF
:1014C000B0FBF1F72E6894F85C20082101FA02F0D5
:1014D00030420FD02068026852070BD5026822F014
:1014E0000402026094F85C008140A960606D40F0E5
:1014F0000100606594F85C104FF0010808FA01F0F3
:10150000304208D021684969090604D5A860606D99
:1015100040F00200606594F85C100420884030427E
:1015200008D021680968890704D5A860606D40F07B
:101530000400606594F85C1010208840304218D098
:1015400021680968090714D5A86020680168490363
:1015500004D50068000308D5A16C07E00168C9053F
:1015600003D4016821F008010160216C09B1204613
:10157000884794F85C1020208840304231D02168A0
:101580000968C9062DD5A86094F83500052820689B
:10159000016806D0490347D5006800031DD4616C7B
:1015A0001CE021F0160101602068416921F08001F2
:1015B0004161206C08B9A06C20B12068016821F05D
:1015C0000801016094F85C103F208840A86084F80E
:1015D000358084F83490216D1FE0E16B09B120461D
:1015E0008847606D00282BD0606DC00714D005209F
:1015F00084F835002068016821F00101016000983D
:10160000401C0090B84203D820680068C007F6D19B
:1016100084F8358084F83490E16C002910D001B052
:101620002046BDE8F04308470168C905D5D40168E4
:1016300021F01001016084F8358084F83490CCE703
:10164000BDE8F883FC0300202DE9F041044600F0DA
:1016500053FA05465CB1022084F83500002684F870
:1016600034602068016821F0010101600DE0012073
:10167000BDE8F08100F040FA401B052805D9202084
:101680006065032084F83500F2E720680068C00731
:10169000F0D121680A6820480240D4E901031843C8
:1016A000D4E903352B43184363691843A3691843EE
:1016B000E3691843236A18431043626A042A03D17A
:1016C000D4E90B231A431043086020684069656A17
:1016D00020F0070128460D43012704280CD1A06AF9
:1016E0000543E06A40B12046FFF7A8F920B1402049
:1016F000606584F83570BAE7206845612046FFF7D9
:1017000089F994F85C203F2191408160666584F8F6
:1017100035700020ACE700003F8010F02DE9F0416B
:101720000446866D90F83400002501280DD0012074
:1017300084F8340094F835700020012F07D084F825
:10174000340002252846BDE8F0810220FBE702278D
:1017500084F8357060652046FFF79AF994F85C10BC
:101760003F208840B0602068016841F016010160A8
:10177000206C20B12068016841F0080101602068F8
:10178000016841F001010160DCE7000070B504462A
:1017900000F0B2F90546601C02D004480078044409
:1017A00000F0AAF9401BA042FAD370BD000400204B
:1017B0002DE9F04FDFF8F0A0894600224FF0010B31
:1017C0004FF00F0C0BFA02F609EA0603B34265D19B
:1017D00022F003045444D4F8081895072F0F0CFA8C
:1017E00007F505EA01083149884201D1002123E0CB
:1017F0002F49884201D101211EE02E49884201D1A2
:10180000022119E02C49884201D1032114E02B491F
:10181000884201D104210FE02949884201D10521E4
:101820000AE02849884201D1062105E0264988427C
:1018300001D1072100E00821B940414515D1234FCE
:101840003968994339603F1D3968994339601F4FA2
:101850000C373968994339603F1F396899433960BB
:10186000D4F80818A943C4F80818036854000321E1
:10187000A1408B430360D30800EB83031D6A540728
:10188000E70E0CFA07F4A5431D62C3688B43C360DF
:101890004368B343436083688B438360521C102AC0
:1018A00090D3BDE8F08F00000030014000000240FE
:1018B0000004024000080240000C024000100240F8
:1018C0000014024000180240001C0240003C01408D
:1018D000B0F5804F04D0B0F5005F04D104F044BEF1
:1018E0000149012048607047F0030020044910B509
:1018F0000A68024202D00860FFF7EAFF10BD00004C
:10190000143C01402DE9F84FDFF89C910022A9F129
:10191000040B03274FF00F0C09F1040AABF1040E7E
:1019200001250B6895402B40AB426ED10C7904F039
:101930000304012C01D0022C15D18668540007FA4B
:1019400004F826EA0806D1F80C8008FA04F848EAF8
:101950000608C0F808804468AC430D79C5F300154B
:101960009540254345600C79E443A40708D0C56839
:10197000540007FA04F6B5438E68A6402E43C660AD
:101980000C7904F00304022C11D1D40800EB840676
:10199000356A5407E40E0CFA04F825EA0805D1F874
:1019A000108008FA04F848EA0508C6F8208005689F
:1019B000540007FA04F6B5430E7906F00306A64074
:1019C0002E4306604C6814F4403F66D0374C2568BF
:1019D00045F480452560246822F0030504F4804422
:1019E0000094334C05EB0408D8F808589407260FE8
:1019F0000CFA06F4A5432F4CA04201D1002424E0A8
:101A00002D4CA04202D101241FE046E02B4CA04205
:101A100001D1022419E02A4CA04201D1032414E090
:101A2000284CA04201D104240FE0274CA04201D150
:101A300005240AE0254CA04201D1062405E0244CEF
:101A4000A04201D1072400E00824B4402C43C8F888
:101A50000848D9F800404D464E689C43F60200D530
:101A60001C432C60DAF8004055464E689C43B60291
:101A700000D51C432C60DBF800405D464E689C435B
:101A8000B60300D51C432C60DEF8004075464E6856
:101A90009C43F60300D51C432C60521C102AFFF413
:101AA0003FAFBDE8F88F0000083C014044380240D9
:101AB00000300140000002400004024000080240E3
:101AC000000C0240001002400014024000180240C6
:101AD000001C02400069084000D0012070474269A4
:101AE00021EA02030A4043EA0241816170470AB1D8
:101AF000816170470904FBE7014880687047000076
:101B00000004002000684AF6AA2101600020704706
:101B10000248816802781144816070470004002007
:101B20000B4810B5016841F400710160016841F48F
:101B300080610160016841F480710160032000F060
:101B4000AFF80F2000F006F800F050F8002010BDAC
:101B5000003C024030B505461F4887B000240168AC
:101B600041F010010160006806A900F01000059026
:101B7000684600F041F90398A8B100F05DF9400013
:101B80001649174AB0FBF1F11648491E026040F2AF
:101B9000E732C0E90324C0E90114846100F010FEBB
:101BA000040003D015E000F047F9E9E70D4800F024
:101BB0005BFE04000DD1362000F045F8102D07D251
:101BC00000222946362000F04BF80748056000E067
:101BD000012407B0204630BD4038024040420F008B
:101BE00000100040000B0020040400200C4882B0CC
:101BF000016841F480410160006800F48040009079
:101C00000748001F016841F0805101600068002210
:101C100000F0805000900F21901E02B000F020B81C
:101C20004438024000280DDB00F01F0201219140E2
:101C30004009800000F1E020C0F88011BFF34F8F11
:101C4000BFF36F8F7047002809DB00F01F020121EE
:101C500091404009800000F1E020C0F80011704779
:101C6000F0B40E4B1B68C3F30223C3F10704042C2A
:101C700000D904241D1D072D01D2002300E0DB1E26
:101C8000012606FA04F56D1E0D409D409E40761E0D
:101C9000164045EA0601F0BC02F0B0B90CED00E0D8
:101CA000064A00F0070110684FF6FF03184040EAAB
:101CB0000120034908431060704700000CED00E06C
:101CC0000000FA052DE9F0470D46040065D0DFF865
:101CD0001491D9F80000EFB200F00700A84207D233
:101CE00089F80070D9F8000000F00700A84254D12C
:101CF00020683D4E810712D5400703D5306840F477
:101D0000E05030602078000703D5306840F4604030
:101D100030603068A16820F0F0000843306020781F
:101D2000C0072DD0304960680839012812D0022838
:101D300013D0032811D00968890700292DDA3168EA
:101D400021F0030101433160FFF7D6FE804641F2E6
:101D5000883A0EE009688903EFE709688901ECE732
:101D6000FFF7CAFEA0EB0801514502D90320BDE8E8
:101D7000F0873068616800F00C00B0EB810FEFD1A4
:101D8000D9F80010484601F00701A94207D90770A9
:101D9000006800F00700A84201D00120E7E72078A2
:101DA000400705D53068E16820F4E0500843306012
:101DB0002078000706D53068216920F4604040EAA9
:101DC000C100306000F058F83168084AC1F30311CF
:101DD000515CC8400649086006480068FFF7BAFE33
:101DE0000020C4E7003C0240083802400485000897
:101DF000FC030020040400200F2202600C4A136838
:101E000003F003034360136803F0F0038360136877
:101E100003F4E053C36012684FF4E05303EAD202C4
:101E200002610448006800F0070008607047000085
:101E300008380240003C024004480549006809682F
:101E4000044AC1F38221515CC8407047FC03002062
:101E500008380240148500080448054900680968EC
:101E6000044AC1F34231515CC8407047FC03002072
:101E70000838024014850008154810B5006810F0B5
:101E80000C01144813D0431004290FD008290ED197
:101E90000F4C241F216801F03F022168490207D539
:101EA0002068C0F38810A0FB030106E0184610BDAF
:101EB0002168C1F38811A1FB00010023FEF7E2F9BC
:101EC0002168C1F30141491C4900B0FBF1F010BD8C
:101ED000083802400024F4002DE9F84F040075D0C2
:101EE0002078DFF838A3C007AAF1040548D00AF12A
:101EF00004000168C1F38101012908D00068C0F322
:101F0000810002280AD1DAF80000400206D52868CC
:101F1000800335D560680028E1D031E06068B0F515
:101F2000803F10D0B0F5A02F286810D020F480306A
:101F30002860286820F4802028606068A0B1FFF73E
:101F4000DBFD06460CE0286840F48030F4E740F4FE
:101F500080202860F7E7FFF7CFFD801B642871D849
:101F600028688003F7D50BE0FFF7C6FD064604E0BE
:101F7000FFF7C2FD801B6428F1D828688003F7D4DE
:101F80002078DFF89C9280074FF0000B3DD5A348E6
:101F9000001D016811F00C0F08D00068C0F381002B
:101FA00002280AD1DAF80000400206D42868800727
:101FB00015D5E068012809D111E0E068B8B1012029
:101FC000C9F80000FFF798FD064605E022E1FFF79B
:101FD00093FD801B0228C2D828688007F7D528689F
:101FE000216920F0F80040EAC10028600DE0C9F83E
:101FF00000B0FFF781FD064604E0FFF77DFD801B82
:1020000002281FD828688007F7D42078000722D537
:10201000824F84486169703771B101210160FFF717
:102020006BFD064604E0FFF767FD801B022809D818
:1020300038688007F7D50EE0C0F800B0FFF75CFD08
:10204000064605E082E0FFF757FD801B02287DD899
:1020500038688007F7D42078400765D56F484FF07F
:1020600000083C300068C0000BD46C483C3001686C
:1020700041F08051016000684FF0010800F080508D
:102080000090694F3868C0050FD4386840F48070FC
:102090003860FFF731FD064604E0FFF72DFD801B99
:1020A000022853D83868C005F7D55C4FA0686C3754
:1020B00001280FD00528386810D020F001003860C2
:1020C000386820F004003860A068B0B1FFF714FD54
:1020D00006460EE0386840F00100F4E740F00400E6
:1020E0003860F7E7FFF708FD811B41F28830814235
:1020F00063D838688007F5D50DE0FFF7FDFC06468C
:1021000006E0FFF7F9FC811B41F28830814254D888
:1021100038688007F5D4B8F1000F05D03F483C304F
:10212000016821F080510160A069B8B33B49091DE5
:102130000968C1F38101022946D00228584606D019
:10214000C9F86000FFF7D8FC044639E035E04F4697
:10215000C9F86000FFF7D0FC064604E0FFF7CCFCAE
:10216000801B022829D828688001F7D4D4E9070108
:102170000843A16A2D4A490802EB0141626A41EA1B
:102180008211084394F82C1040EA0161CAF800104B
:1021900001203866FFF7B0FC044605E03CE0FFF79D
:1021A000ABFC001B022808D828688001F7D533E073
:1021B000FFF7A2FC001B022802D90320BDE8F88F1C
:1021C00028688001F4D427E00128F7D0DAF800006D
:1021D000E26900F4800191421CD1226A00F03F01C3
:1021E000914217D147F6C071626A0140B1EB821F7C
:1021F00010D1A26A4FF0FF3300F4403103EB5202DA
:10220000B1EB024F06D194F82C1000F07060B0EBE7
:10221000016F01D00120D1E70020CFE70438024050
:1022200000004742800E4742007000400000FFFF60
:1022300090F85100704770B5040009D0606A00251D
:1022400040B125616561A56294F8510040B10CE090
:10225000012070BD6068B0F5827FF4D0E561F2E7DF
:1022600084F85050204600F045F8022084F85100D0
:102270002068016821F040010160A088218900F4F4
:10228000827001F404410843A18901F4006108430C
:10229000217C01F002010843217D01F00101084386
:1022A000218B01F400710843217F01F038010843BC
:1022B00094F8201001F080010843218D01F40051B1
:1022C000084321680860A069042101EA104094F8DD
:1022D000241001F010010843216848602068C1699A
:1022E00021F40061C1616565012084F8510000207E
:1022F00070BD00002DE9F04186B004461421684607
:10230000FEF70AF82F4A206800242F4902260325E9
:102310000527904225D12C481430026842F480529F
:102320000260006800F480500590086840F00100E9
:102330000860086802AA00F001000590E020CDE9DD
:102340000006224E82E8B00069463046FFF7DAFA0E
:102350001020009001AA012082E831006946304631
:102360002AE01B4A904229D117481030026842F4F3
:1023700080420260006800F480400590086840F0E8
:1023800002000860086802AA00F0020005904FF4FD
:102390006040CDE90006DFF83C8082E8B000694685
:1023A0004046FFF7AFFA4FF48050CDE9000602AA8D
:1023B000694682E8B0004046FFF7A4FA06B0BDE8DF
:1023C000F08100000030014030380240000002403F
:1023D00000380040000402402DE9F84F044690F810
:1023E000500000261D4690468A4601280ED04FF028
:1023F000010984F85090FFF77FFB074694F85100DD
:102400004146B346012804D0022696E00220BDE8EA
:10241000F88FBAF1000F6ED0B8F1000F6BD0032027
:1024200084F85100C4F854B0C4F830A0A4F8348043
:10243000A4F83680C4F838B0A4F83CB0A4F83EB094
:10244000C4F844B0C4F840B0A068B0F5004F09D15A
:102450002068026822F0400202602068026842F4AC
:102460008042026020680268520603D4026842F08B
:1024700040020260E068B0F5006F606803D038B3D6
:10248000012925D042E008B101291BD1206B216828
:102490000088C86006E020688168890709D5216B3B
:1024A0000988C160206B801C2063E08E401EE0869E
:1024B00008E0FFF721FBC01BA84202D3681C01D033
:1024C00004E01DB1E08E0028E5D122E0032632E0D1
:1024D000206B21680078087306E02068816889070E
:1024E0000AD5216B09780173206B401C2063E08EB4
:1024F000401EE0860AE01CE0FFF7FEFAC01BA8427F
:1025000002D3681C02D0E1E7002DDFD0E08E002866
:10251000E3D13A462946204601F0D0F908B12020FF
:102520006065A06818B92068C16880680090606D17
:1025300008B1012601E084F8519084F850B030468B
:1025400065E72DE9FF4F81B0044690F85000012562
:1025500000270E9E9846934601280FD0AA4684F87D
:1025600050A0FFF7C9FA94F85110814662684046BE
:1025700001290DD0B2F5827F08D103E0022005B019
:10258000BDE8F08FA2680AB9042901D00227C7E08C
:102590000299002968D0BBF1000FFBD0B8F1000F01
:1025A000F8D094F85110042902D0052184F8511074
:1025B00000216165C4F838B0A4F83E80A4F83C80DE
:1025C000029A2263A4F83680A4F8348021646164FE
:1025D00021680A68520603D40A6842F040020A6081
:1025E000E168B1F5006F616803D0E1B3012843D021
:1025F0007AE009B1012838D1206B21680088C860D1
:10260000206B801C2063E08E401EE0862DE0206859
:10261000816889070DD5E18E59B1012D09D1216B52
:102620000988C160206B801C2063E08E401EE0861C
:10263000002520688168C9070BD0E18F49B1C068C7
:10264000A16B0880A06B801CA063E08F401EE08718
:102650000125FFF751FAA0EB0900B04205D3701C29
:1026600003D003275AE007E056E0E08E0028CED1E1
:10267000E08F0028CBD13DE0206B21680078087303
:10268000206B401C2063E08E401EE0862CE020681A
:10269000816889070DD5E18E59B1012D09D1216BD2
:1026A00009780173206B401C2063E08E401EE08699
:1026B000002520688168C9070BD0E18F49B1C06847
:1026C000A16B0870A06B401CA063E08F401EE087E8
:1026D0000125FFF711FAA0EB0900B04202D3701CEC
:1026E00002D0BEE7002EBCD0E08E0028CFD1E08F14
:1026F0000028CCD14A463146204601F0DFF818B117
:102700000127202060650BE0A06818B92068C16827
:1027100080680090606D08B1012701E084F851A045
:10272000002084F85000384629E7704770470000C1
:1027300070B590F83C20012A32D0012580F83C5039
:10274000022280F83D2002685368946823F07006E6
:102750000B6833435360134B02689A4214D0B2F1B2
:10276000804F11D0104B9A420ED0104B9A420BD092
:102770000F4B9A4208D00F4B9A4205D00E4B9A420B
:1027800002D00E4B9A4204D1496824F080031943C9
:10279000916080F83D50002180F83C10084670BDE3
:1027A000022070BD0000014000040040000800400D
:1027B000000C0040000401400040014000180040AF
:1027C00010B5040003D094F83D0010B107E00120DB
:1027D00010BD002084F83C00204600F01FF80220C5
:1027E00084F83D00211D206801F070F9012084F873
:1027F000460084F83E0084F83F0084F8400084F8E6
:10280000410084F8420084F8430084F8440084F8CE
:10281000450084F83D00002010BD0000114808B5B7
:10282000016841F001010160016801F001010091BE
:10283000016841F0020101600068002200F002001E
:10284000009003211C20FFF70BFA002206211D2017
:10285000FFF706FA1C20FFF7F6F9BDE808401D2037
:10286000FFF7F1B94038024090F83D10012901D03E
:1028700001207047022180F83D100168CA6842F0CB
:102880000102CA6000681149884214D0B0F1804F3B
:1028900011D00F4988420ED00E4988420BD00E4904
:1028A000884208D00D49884205D00D49884202D09F
:1028B0000C49884204D1816801F00701062903D040
:1028C000016841F0010101600020704700000140F3
:1028D0000004004000080040000C004000040140DB
:1028E000004001400018004070B5044690F83C00DC
:1028F0000025012817D0012684F83C60022084F8C6
:102900003D002068826822F0770222F47F428260D4
:102910000868502838D00DDC20284FD005DC90B353
:10292000102811D14AE0022070BD302846D040283E
:102930000AD13BE060282FD070280DD0B0F5805F21
:1029400003D0B0F5005F12D0012584F83D6000206F
:1029500084F83C00284670BDCB68D1E9012120688D
:1029600001F020F92068816841F0770109E0CB6827
:10297000D1E90121206801F015F92068816841F44E
:1029800080418160E1E719E0CA684968206801F088
:102990001BF95021206806E0CA684968206801F0E8
:1029A00024F96021206801F007F9CEE7CA68496878
:1029B000206801F009F940212068F4E72268014607
:1029C0001046F0E770472DE9F04104460068C668FC
:1029D00005694FF00007A90713D5B10711D5F91EF6
:1029E000016101202077206880698007204602D09D
:1029F000FFF7E8FF04E000F07EF8204600F07CF8E6
:102A00002777680716D5700714D521686FF0040082
:102A10000861022020772068806910F4407F2046FA
:102A200002D0FFF7CFFF04E000F065F8204600F089
:102A300063F82777280715D5300713D521686FF07D
:102A400008000861042020772068C06980072046BC
:102A500002D0FFF7B7FF04E000F04DF8204600F089
:102A60004BF82777E80616D5F00614D521686FF0E5
:102A700010000861082020772068C06910F4407FAA
:102A8000204602D0FFF79EFF04E000F034F8204615
:102A900000F032F82777E80708D0F00706D0216861
:102AA0006FF001000861204600F028F8280608D5DC
:102AB000300606D521686FF0800008612046FFF7D8
:102AC00034FE680608D5700606D521686FF0400010
:102AD0000861204600F030F8A8060AD5B00608D5EF
:102AE00021686FF0200008612046BDE8F041FFF743
:102AF0001DBEBDE8F08170477047000010B500684A
:102B0000B0F1804F06D00A49884209D1BDE8104093
:102B100002F0E0BB02F012FCBDE8104002F004BC81
:102B20000449884203D1BDE81040FEF7F1BF10BD53
:102B300000040040001000407047704770470000DC
:102B4000F8B5016804460868CA684B6910F00F0FB1
:102B50004FF0000559D003F0010602F49077374397
:102B600065D0C10705D0D10503D5616C41F00101E5
:102B70006164410705D5D90703D0616C41F00201BA
:102B80006164810705D5D90703D0616C41F0040168
:102B90006164010707D502F02001314303D0616C65
:102BA00041F008016164616C00293AD0800604D5C7
:102BB000900602D5204601F0B9F820684069616CA2
:102BC000C0F38010090700D460B3204601F079F803
:102BD00020684069400621D52068143050E8001F65
:102BE00021F0400140E80012002AF5D1E06BA8B1C5
:102BF0006E490165E06BFEF745FC002811D0E06BE3
:102C0000016D01B0BDE8F040084783060FD593067B
:102C10000DD52046BDE8F84001F088B82046FFF702
:102C20008DFFF8BD2046FFF789FF6564F8BD266B70
:102C30002023012E7DD1C6067BD5D60679D508681E
:102C40004868009048694FF00206400641D5E16BA4
:102C5000086840680004000CE8D0A28D8242E5D9E3
:102C6000E085C869B0F5807F2DD020680C3050E831
:102C7000001F21F4807140E80012002AF5D120687D
:102C8000143050E8001F21F0010140E80012002A32
:102C9000F5D12068143050E8001F21F0400140E8D1
:102CA0000012002AF5D184F84230256320680C30E8
:102CB00050E8001F21F0100140E80012002AF5D171
:102CC000E06BFEF796FB6663A08DE18D401A81B242
:102CD0002AE0A08DE18D401A81B2E08D0028A5D0B8
:102CE0000029A3D020680C3050E8002F22F4907205
:102CF00040E80027002FF5D12068143050E8002F5D
:102D000022F0010240E80027002FF5D184F842307C
:102D1000256320680C3050E8002F22F0100240E8B4
:102D20000023002BF5D166632046FFF706FFF8BDB0
:102D3000FFE705062BD5150629D594F84100212873
:102D4000F5D1A068B0F5805F01D12069B0B1206AEB
:102D5000411C2162216800784860E08C401E00041C
:102D6000000CE084E3D12068C16821F08001C160DB
:102D70002068C16841F04001C160D8E7206A00883E
:102D8000C0F308004860206A801C2062E5E7400626
:102D9000CDD55006CBD5CA68204622F04002CA6085
:102DA00084F8413000F01EF9C1E700001D3C000826
:102DB00070B5040004D094F84100002510B106E07D
:102DC000012070BD84F84050204600F023F82420F4
:102DD00084F841002068C16821F40051C160204698
:102DE00001F006F82068016921F490410161206832
:102DF000416921F02A0141612068C16841F4005114
:102E0000C1606564202084F8410084F84200656355
:102E1000002070BD70B586B0064614216846FDF7E7
:102E20007BFA2349306888423FD122480025016857
:102E300041F400210160006800F4002005901D4865
:102E40001038016841F0010101600068022100F0C2
:102E50000100059003208DE82300039008200490D2
:102E600069461548FEF74EFD154C144820604FF09A
:102E7000006060604020C4E902050001C4E9040567
:102E8000C001A561C4E9075020466562FEF7DCFB7E
:102E900008B1FDF7F9FEB463002211463420A663A1
:102EA000FEF7DEFE3420FEF7CEFE06B070BD000059
:102EB000004C004040380240000002407060024078
:102EC000A009002070472DE9F843044690F841001E
:102ED0001F4615460E46202802D00220BDE8F88382
:102EE0008EB185B100206064212084F84100FEF796
:102EF00003FEA5848146E584A0684FF02008B0F564
:102F0000805F02D003E00120E8E7206910B1354678
:102F100000260EE000250CE08021204600F0EEFFA8
:102F2000A0B9BDB115F8010B21684860E08C401EC6
:102F3000E084E08C4B464FF0000200970028EBD174
:102F40004FF04001204600F0D9FF40B184F84180A5
:102F50000320C3E736F8020BC0F30800E4E784F867
:102F600041800020BAE7000037B5044690F84100E0
:102F7000202801D002203EBD019951B34AB32162FD
:102F8000A284E28400206064212384F84130A56B90
:102F9000114BEB63A56B114B2B64A56B104BEB64D2
:102FA000A36B186520681346A56B021D2846FEF723
:102FB000B5FB21686FF0400008602068143050E8CD
:102FC000001F41F0800140E80012002AF5D10020E6
:102FD0003EBD01203EBD0000773C0008B93C000822
:102FE0002D3C000870477047FEE7000030B52448CC
:102FF0008BB0224901600C210024C0E901144FF07C
:103000008071C1604FF4403101614FF48011416122
:103010000476012545768576C57604774477FEF7F4
:10302000AEF808B1FDF730FE28216846FDF774F9C7
:10303000CDE9064504940E2008950094099001946A
:1030400002940394694605940D48FDF799FE08B172
:10305000FDF71AFE0A48FEF79AF908B1FDF714FECB
:1030600002210748FDF712FE002804D00BB0BDE88E
:103070003040FDF709BE0BB030BD000000640040D9
:10308000CC060020094808B5016841F40011016030
:103090000068002200F40010009002210F20FEF7CB
:1030A000DFFDBDE808400F20FEF7CDBD30380240FF
:1030B00010B51C4A0821032002F0D6FF1A4C194A09
:1030C0000821A0611832032002F0CEFF154AE0610A
:1030D00030320021154803F027F8124A206254329A
:1030E0000021134803F020F80E4A60627832002174
:1030F000104803F019F80B4AA0629C3200210E48D8
:1031000003F012F8074AE062C03200210B4803F0D6
:103110000BF82063206A002803D1BDE81040FDF7BA
:10312000B3BD10BD68810008000000208D6F00084D
:10313000916F0008B97000081571000851710008FE
:103140002DE9F04786B014216846FDF7E5F83E48C2
:103150000026016841F004010160016801F00401EA
:103160000591016841F080010160016801F0800172
:103170000591016841F001010160016801F0010160
:103180000591016841F0020101600068DFF8BCA010
:1031900000F00200059000224FF482715046FEF7C5
:1031A000A6FCDFF8AC900022C0214846FEF79FFC49
:1031B0004FF4005000904FF488100227CDE901072A
:1031C00069464846FEF79EFB780303258DE86100BB
:1031D00069464846FEF796FB01240420CDE9000429
:1031E00069465046CDE90245FEF78CFBCDE9004625
:1031F000DFF86080694640460294FEF783FBCDE924
:10320000007669464046CDE90245FEF77BFBC020CB
:10321000CDE9000469464846CDE90245FEF772FB58
:103220002002CDE9000469465046CDE90245FEF78B
:1032300069FB002201212820FEF712FD2820FEF75D
:1032400002FD06B0BDE8F0873038024000000240C1
:1032500000080240000402400F4810B50D4901600B
:103260004FF48271416000218160C1604FF40072AF
:103270000161C0E90512C1610162416281620A21F6
:10328000C162FEF7D8FF002803D0BDE81040FDF76B
:10329000FBBC10BD00300140180800200F4810B5DD
:1032A0000D4901604FF48271416000218160C1606D
:1032B0004FF400720161C0E90512C161016241620F
:1032C00081620A21C162FEF7B6FF002803D0BDE883
:1032D0001040FDF7D9BC10BD003800407008002038
:1032E00010B586B000241E48009401940294039403
:1032F00004940594006844F62061B0FBF1F119488C
:10330000491E4FF080420160174802604CF24F3274
:10331000C0E90324C0E9011480218161FFF750FA5C
:1033200008B1FDF7B1FC4FF48050009069460E489B
:10333000FFF7DAFA08B1FDF7A7FC049404A90A48DC
:103340000594FFF7F5F908B1FDF79EFC0648FFF775
:103350008BFA002801D0FDF797FC06B010BD0000E5
:10336000FC03002044000020C808002010B586B0EF
:1033700000241D480094019402940394049405943D
:10338000006844F62061B0FBF1F11848491E184A64
:103390000160184802606322C0E90324C0E90114F7
:1033A00080218161FFF70CFA08B1FDF76DFC4FF445
:1033B0008050009069460F48FFF796FA08B1FDF774
:1033C00063FC049404A90B480594FFF7B1F908B114
:1033D000FDF75AFC0748FFF747FA002801D0FDF730
:1033E00053FC06B010BD0000FC0300204400002088
:1033F00000040040100900200C4810B50A49016083
:103400004FF416514160002181600C22C160C0E977
:1034100004128161C161FFF7CBFC002803D0BDE835
:103420001040FDF731BC10BD004C00405809002091
:10343000FEE7FEE7054A18B1012803D000207047D7
:10344000012100E002211046FEF744BB00040240C7
:10345000B5EEC00AF0B4F1EE10FA07DB10EE100A78
:10346000B0F17E5F02DA0E21E948CBE110EE100ADE
:103470004FF40001A0F17E50884203D2E4480E21AF
:103480000E30BFE110EE100A4FF48003A0F180402F
:10349000984203D2DE480E211C30B3E110EE100A30
:1034A000DC4A1044984203D2D9480E212A30A9E1BF
:1034B00010EE100A4FF40013A0F18140984203D29D
:1034C000D3480E2138309DE110EE100AD24A104444
:1034D000984203D2CE480E21463093E110EE100AF6
:1034E000CE4A1044984203D2C9480E21543089E193
:1034F00010EE100ACA4A1044984203D2C4480E2162
:1035000062307FE110EE100A4FF48013A0F1824088
:10351000984203D2BE480E21703073E110EE100ABB
:10352000C04A1044984203D2B9480E217E3069E166
:1035300010EE100ABC4A1044B0F5A00F03D2B448F4
:103540000E218C305EE110EE100AB84A1044B0F53E
:10355000401F03D2AE480E219A3053E110EE100AFC
:10356000B34A4FF420131044984203D2A8480E21C6
:10357000A83047E110EE100AAE4A1044984203D238
:10358000A3480E21B6303DE110EE100AAA4A4FF4CE
:10359000E0141044A04203D29D480E21C43031E112
:1035A00010EE100AA54A4FF4A0131044984203D21B
:1035B00097480E21D23025E110EE100AA04A10449F
:1035C000984203D292480E21E0301BE110EE100A1F
:1035D0009C4A1044984203D28D480E21EE3011E1EE
:1035E00010EE100A984A1044984203D288480E21DF
:1035F000FC3007E110EE100A944A1044984202D2BF
:103600000E219348FEE010EE100A924A4FF49015F6
:103610001044A84203D28E480E210E30F2E010EE84
:10362000100A8D4A10444FF42022904203D2884859
:103630000E211C30E6E010EE100A884E3044904215
:1036400003D283480E212A30DCE010EE100A844EAB
:103650003044904203D27E480E213830D2E010EE42
:10366000100A804E3044904203D279480E214630F1
:10367000C8E010EE100A7C4E3044904203D27448E9
:103680000E215430BEE010EE100A784E30449042C5
:1036900003D26F480E216230B4E010EE100A744E6F
:1036A0003044904203D26A480E217030AAE010EEF6
:1036B000100A704E3044984203D265480E217E3085
:1036C000A0E010EE100A6C4E3044984203D26048DD
:1036D0000E218C3096E010EE100A684B1844A84278
:1036E00003D25B480E219A308CE010EE100A644B36
:1036F0001844904203D256480E21A83082E010EEC2
:10370000100A604B1844904203D251480E21B63043
:1037100078E010EE100A5C4B1844904203D24C48FB
:103720000E21C4306EE010EE100A584B184490423F
:1037300003D247480E21D23064E010EE100A544BF9
:103740001844904203D242480E21E0305AE010EE75
:10375000100A504B1844904203D23D480E21EE30DF
:1037600050E010EE100A4C4B1844904203D23848F7
:103770000E21FC3046E010EE100A484A1044B0F525
:10378000481F02D20E2146483CE010EE100A454A7E
:103790001044A04203D242480E210E3032E010EE17
:1037A000100A414A4FF4C8131044984203D23C48CF
:1037B0000E211C3026E010EE100A3C4A10449842BC
:1037C00003D237480E212A301CE010EE100A384A86
:1037D0001044984203D232480E21383012E010EEE5
:1037E000100A344A1044984203D22D480E21463024
:1037F00008E010EE100A304A1044884205D22848EA
:103800000E215430F0BC00F0B3BBF0BC7047000098
:10381000510000200000C0BF000060BF000040BF9A
:10382000000020BF0000F0BE0000E0BE000090BE1F
:10383000000060BE000038BE000010BE0000F4BDF5
:103840000000E0BD0000CCBD0000B8BD0000A4BD7C
:103850005B010020000090BD00007EBD000074BD33
:1038600000006ABD000060BD000056BD00004CBDF8
:10387000000042BD000038BD000024BD000010BDA6
:103880000000FEBC0000F4BC0000EABC0000E0BC8C
:103890000000D6BC0000CCBC0000C2BC0000B8BC1C
:1038A00065020020000086BC00006ABC000051BC1C
:1038B000000038BC00001FBC000006BCF8B515466F
:1038C0000E460B46009204460122022100F02CF81D
:1038D000A0B9134813490068B0FBF1F04FF47A71B6
:1038E000484300906068B0F5827F0DD133460022D6
:1038F00080212046009500F017F870B1606D40F00F
:10390000200060650320F8BD009830B1401E009093
:1039100020688068C0430006F6D50020F8BD00008E
:10392000FC03002000366E012DE9F8431E46914647
:1039300088460446089DFEF7DFF8401B351AFEF75F
:10394000DBF8074625480068C0F3CB30684338E011
:10395000701C37D0FEF7D0F8C01BA84203D215B1B7
:10396000009860B32CE02068416821F0E0014160DC
:103970006068B0F5827F0BD1A068B0F5004F02D02F
:10398000B0F5806F04D12068016821F0400101602A
:10399000A06AB0F5005F09D12068016821F40051E8
:1039A00001602068016841F400510160012084F841
:1039B0005100002084F850000320BDE8F883002562
:1039C000401E00902068816838EA010004D0002081
:1039D0004845BDD10020F0E70120F9E7FC030020B5
:1039E000FDF7D4BE10B54FF0E020006904F004FAF2
:1039F000012803D0BDE8104003F0C0BE10BD000098
:103A000030B593B030216846FCF786FC14210CA831
:103A1000FCF782FC1E480025016841F080510160DE
:103A2000006800F0805011901A48016841F480410C
:103A300001600068022400F4804011900120009091
:103A4000000401908001CDE90640082008904FF461
:103A5000A870CDE9090404200B906846FEF73CFAF3
:103A600008B172B6FEE70CA90F2081E831004FF4CF
:103A7000A0500F904FF48050109005210CA8FEF735
:103A800021F9002801D072B6FEE713B030BD000066
:103A900040380240007000400248016841F4700163
:103AA0000160704788ED00E00148FEF78CBF000020
:103AB000C80800200148FEF786BF0000100900205A
:103AC0000148FEF780BF0000000B0020F0B502683F
:103AD000294D2A4E2A4FDFF8ACC02B4B4FF0804EB9
:103AE000A84209D0704507D0B04205D0B84203D0F3
:103AF000604501D0984203D122F070044A68224305
:103B0000A8421BD0704519D0B04217D0B84215D08A
:103B1000604513D0984211D01C4CA0420ED01C4CD2
:103B2000A0420BD01B4CA04208D01B4CA04205D099
:103B30001A4CA04202D01A4CA04203D122F4407485
:103B4000CA6822434C6922F08002224302608A68DC
:103B5000C2620A688262A84201D0984201D1096912
:103B60000163012141610169C90703D0016921F0A5
:103B700001010161F0BD00000000014000040040AF
:103B800000080040000C00400004014000400140DB
:103B9000004401400048014000180040001C004063
:103BA0000020004010B5846842EA032224F47F44D8
:103BB0000A432243826010BD826822F070020A43E9
:103BC00042F007018160704710B5046A036A23F070
:103BD00001030362836923F0F00343EA021324F034
:103BE0000A020A438361026210BD10B5036A046AC7
:103BF00024F010040462846923F0A00324F47044C8
:103C000044EA023243EA01118261016210BD000000
:103C10000148FEF795BF00005809002010B5806BE1
:103C20000021C185C184FEF789FF10BD70B5846B8A
:103C30002068406994F84110C0F3C0100025212984
:103C400004D118B1E584204600F062F8206840698C
:103C500094F84210C0F38010222904D118B1E585F0
:103C6000204600F02EF8606C40F0100060642046A2
:103C7000FEF764FF70BD10B50146806B09680968E6
:103C8000C90516D40021C1840168143151E8002F00
:103C900022F0800241E80023002BF5D101680C31AD
:103CA00051E8002F42F0400241E80023002BF5D1FB
:103CB00010BDFFF797F910BD10B5806BFFF793F9B2
:103CC00010BD01680C3151E8002F22F4907241E8D8
:103CD0000023002BF5D10168143151E8002F22F0A8
:103CE000010241E80023002BF5D1016B012909D124
:103CF00001680C3151E8002F22F0100241E8002346
:103D0000002BF5D1202180F842100021016370477B
:103D100001680C3151E8002F22F0C00241E8002375
:103D2000002BF5D1202180F84110704708B590F89C
:103D30004210222901D0022008BD81684FF480532F
:103D4000994201D1026922B1826A99421BD049B1DC
:103D50000AE00268816A5268C2F308020A80816A36
:103D6000891C08E0016971B10168496801F07F01AF
:103D70001170816A491C8162C18D491E0904090CB8
:103D8000C18503D01BE001684968F1E70168CA6892
:103D900022F02002CA600168CA6822F48072CA60F8
:103DA00001684A6922F001024A61202180F842102C
:103DB00000214163026B012A03D0FFF783F8002042
:103DC00008BD016301680C3151E8002F22F0100298
:103DD00041E80023002BF5D101680A68D20602D51C
:103DE0000A6849680091818DFEF7A7FEE7E70000A9
:103DF00070B5044600680169E26821F4405111433E
:103E00000161A1682069E2690143606910430143CF
:103E10002068C26849F20C639A430A43C260206872
:103E20004169A26921F4407111434161314920681F
:103E3000884202D03049884202D1FEF70DF801E0F5
:103E4000FDF7FAFFE2690023192164253226B2F555
:103E5000004F626828D0A0FB0101930F9200FCF78D
:103E600011FA0146B0FBF5F06FF01802504301EB78
:103E7000800006EB0010B0FBF5F000F0F002B1FBA3
:103E8000F5F002EB0012B1FBF5F06FF018035843A8
:103E900001EB800006EB0010B0FBF5F000F00F0026
:103EA00021681044886070BDA0FB010192185B413D
:103EB000FCF7E8F90146B0FBF5F00201B1FBF5F0C3
:103EC0006FF01803584301EB800006EBC000B0FB15
:103ED000F5F000F0F80002EB4002B1FBF5F05843BA
:103EE00001EB800006EBC000B0FBF5F000F007002E
:103EF000D6E7000000100140001401402DE9F8430E
:103F00001F4690460D460446089E23E0701C21D0B3
:103F1000FDF7F2FDC01BB0421AD8CEB12068C168CF
:103F2000490717D5802D15D0402D13D00168C943FE
:103F300009070FD401680025406800902046FFF76C
:103F4000C0FE0820606484F840500120BDE8F8837A
:103F50000320FBE72068006835EA000004D0002059
:103F60004045D3D00020F1E70120F9E7FEE700004B
:103F70008AB201460148FEF7F7BF00005809002049
:103F80000FB4054B10B503A9044A029800F0D4F908
:103F900010BC5DF814FB0000A15E00088C0400203A
:103FA0000FB4084B10B504A902AA039800F0C4F995
:103FB000044602A9002000F04DFD204610BC5DF82B
:103FC00014FB0000554A00087CB50C001D4616463F
:103FD000014601D0601E00E00020CDE90010064B34
:103FE0006A462946304600F0A7F9002C02D0009A14
:103FF000002111707CBD00003F4A00080907090E2E
:10400000002804DB00F1E02080F80014704700F085
:104010000F0000F1E02080F8141D704702E008C88E
:10402000121F08C1002AFAD170477047002001E032
:1040300001C1121F002AFBD1704710B500220221D6
:104040002C2001F0B1FE0222BDE8104011462C20C8
:1040500001F0AABE10B504466D2240F606012E20DE
:1040600001F0A2FE41F6060114B140F2076201E040
:1040700041F20762BDE810402E2001F079BE10B574
:10408000002000F007F800220421BDE8104036208F
:1040900001F06EBE38B504466B4602220021362080
:1040A00001F0D2FC0F2C2DD2DFE804F01008162C02
:1040B0002C2C2C1E3A2C2C454A4F560000208DF8F3
:1040C00000009DF8010000F0FE0019E09DF80000DE
:1040D00000F0FC00401C04E09DF8000000F0FC0033
:1040E000801C8DF800000DE09DF8000000F0B3008A
:1040F00040F048008DF800009DF8010040F080007D
:104100008DF801006B4601220021362001F054FE9B
:104110000122114636200DF1010301F04DFE38BD9C
:104120009DF8000000F0B3008DF800009DF801003C
:1041300000F07F00E4E79DF8010040F00200DFE7B7
:104140009DF8010000F0FD00DAE79DF8000000F0A6
:10415000CF0040F02000C4E701208DF800000320CC
:10416000CEE710B50E20FFF795FF4FF40042062171
:104170002D2001F0FDFD012001F0F2F8BDE8104016
:104180000120FFF787BF10B582B204212D2001F076
:10419000EFFD032206212D2001F006FE002206215C
:1041A0002D2001F001FE0A21BDE810402D2001F074
:1041B0002CBC00002DE9FF5F82B00021DDE9043056
:1041C000020DDDF840B0034318D044F61050A2F2BF
:1041D000FF3242431514119801281FD0A5EB0B00A4
:1041E000401C5FEA000A4FF000064E4FDFF838919E
:1041F000B046504615D5CAF1000413E011980124C9
:104200004AA3012801D16FEA0B010298119AC0E973
:104210000031C0E9024206B0BDE8F09FCBF10000DA
:10422000DFE704460021404A491842EB0450CDE93B
:10423000001012E0E00707D032463B4640464946B0
:10424000FCF71CF98046894632463B461046194623
:10425000FCF714F906460F466410002CEAD1DDE99C
:104260000401DDE90023BAF1000F06DAFCF706F9D4
:1042700042464B46FCF702F905E0FCF771F942466D
:104280004B46FCF76DF904460E460022284BFCF71E
:104290004BFA03D84FF0FF30014607E00022254BD0
:1042A00020463146FCF743F8FCF74DFB102409E0AB
:1042B000002C0ADB0A220023FBF7E4FF039B3032C9
:1042C0001A55641E50EA0102F2D1641C039AC4F12B
:1042D00011031444119A012A03D0012208430DD17D
:1042E0000AE0084304D000204FF0110B119072E750
:1042F000A3EB0B056D1E0DE05B4504DD4FF00002E6
:1043000005F1010504E003DA4FF00002A5F1010513
:10431000002AECD002981199C0E90231C0E90045A9
:1043200079E70000000014400000F03F300000007A
:104330000000F0430000E03F2DE9FF4F95B09A46A2
:10434000884606460025EEE1252877D10024274639
:10435000F94A0121039400E0044316F8013F203B91
:1043600001FA03F01042F7D130782A2811D06FF00B
:104370002F033078A0F13002092A16D8039A44F0AE
:10438000020402EB820203EB42021044761C03900B
:10439000EFE758F8042B0392002A03DA504244F462
:1043A0000054039044F00204761C30782E2816D175
:1043B00016F8010F44F004042A280DD06FF02F02E4
:1043C0003078A0F13003092B09D807EB870302EB03
:1043D0004303C718761CF3E758F8047B761C307843
:1043E0006C280FD006DC4C2817D068280DD06A281E
:1043F00014D104E0742810D07A280FD10DE044F4D1
:1044000000140AE044F4801401E044F4401472788B
:10441000824202D104F58014761C761C307866281E
:104420000BD013DC582877D009DC002875D045283C
:10443000F6D04628F4D047281AD193E118E0632833
:1044400035D0642879D0652812D18BE1702873D0DB
:1044500008DC6728F1D069286FD06E280DD06F284E
:1044600006D1ACE073282CD0752874D0782853D0AE
:104470005246179990476D1C54E1C4F3025002282C
:1044800009D003280DD0D8F8001004280DD00D60F5
:1044900008F1040846E1D8F80010EA17C1E9005213
:1044A000F6E7D8F800100D80F2E70D70F0E718F885
:1044B000041B8DF8001000208DF80100EB46012050
:1044C00003E058F804BB4FF0FF3061074FF00001E4
:1044D00002D40DE009F101018946B9420FDA8145A4
:1044E000F8DB1BF809100029F4D108E009F10101FB
:1044F00089468142FADB1BF809100029F6D103989E
:104500005346A0EB090721463846179A00F080FA77
:10451000284400EB090507E044E008E10DE01BF842
:10452000010B524617999047B9F10109F7D253464A
:1045300021463846179AF2E039E00A21C4F30252C4
:104540004FF0000B0091022A06D058F8040BC11757
:10455000032A09D00AE023E008F1070020F007024F
:10456000F2E80201904605E000B2C117042A01D129
:1045700040B2C117002906DA0A460021404261EB29
:1045800002012D2202E0220504D52B228DF8042001
:10459000012203E0E20701D02022F7E7914657E02D
:1045A0000A2100E010214FF0000B00910BE01021D8
:1045B0004FF0000B44F004040827009103E00820AA
:1045C0004FF0000B0090C4F30252022A05D058F8B5
:1045D000040B0021032A08D008E008F1070020F0AE
:1045E0000702F2E80201904603E080B2042A00D1FB
:1045F000C0B24FF0000922072AD53278702A07D0BE
:10460000DDF800C08CF0100C5CEA0B0C05D00EE05D
:1046100040228DF80420012208E050EA010306D070
:1046200030238DF804308DF8052002229146009B3E
:1046300083F0080353EA0B030AD150EA010201D1C7
:10464000620705D530228DF804204FF001097F1E46
:104650003278582A04D039A20C920CAA02920BE0AC
:104660003BA2F9E75B46009AFBF70CFE0C9B9B5CB8
:10467000029A521E0292137050EA0102F2D102987D
:1046800004A9081A00F1200B600702D524F4803435
:1046900000E001275F4502DDA7EB0B0000E00020F2
:1046A00000EB0B01009003984944401A0390E0038B
:1046B00006D453462146179A039800F0A9F90544F9
:1046C000002706E001A85246C05D179990476D1C6F
:1046D0007F1C4F45F6DBE0030CD553462146179A65
:1046E000039800F095F9054404E0302052461799EC
:1046F00090476D1C0099481E00900029F5DC08E0E9
:104700000298029952460078491C029117999047E5
:104710006D1CBBF10001ABF1010BF1DC5BE100F0C2
:1047200065F90544761C307800287FF40DAE19B089
:104730002846BDE8F08F00000928010030313233EF
:1047400034353637383961626364656600000000CD
:1047500030313233343536373839414243444546B7
:1047600000000000600700D4062708F1070020F0D1
:104770000700F0E80223804603F0004C5FEA0C00DB
:1047800001D097A009E0200501D596A005E0E0073B
:1047900001D095A001E0AFF24C001390307823F0E7
:1047A000004365280CD006DC452809D046281DD0DA
:1047B00047287FD13BE0662818D067287AD136E0B9
:1047C0000021112F01DB112000E0781CCDE9000150
:1047D00004A90CA8FFF7EEFCDDE90D010C9A4FF0DF
:1047E000000B07F10109109200914EE04FF00040DC
:1047F0000097CDE9011004A90CA8FFF7DBFCDDE967
:104800000D020C9B0F994FF0000B914610930092F4
:1048100011B9791C00EB0109B7EB090003D4C0F111
:10482000FF3B07F10109A9EB0700019042E0012FCE
:1048300000DA01270021112F01DD112000E03846A8
:10484000CDE9000104A90CA8FFF7B4FCDDE90D01D6
:104850000C9A00914FF0000BB946109221070FD42B
:10486000009A4A4503DA914601E0A9F10109B9F13C
:10487000010F05DD109AA9F10101515C3029F4D036
:10488000B84202DA10F1040F03DA0121CDE9011078
:1048900010E0002803DC8344A9EB000102E0411C86
:1048A000494500DD8946A0EB0B00401C01904FF00C
:1048B00000400290200705D40198484502DB4FF0E4
:1048C000FF30019000208DF84B0002980DF14B074E
:1048D000B0F1004F25D002200C902B200D900298B3
:1048E00000280CDA404202902D200D9007E00A21AA
:1048F0000298FBF74DFF3031029007F8011D0C992B
:10490000481E0C900029F2DC02980028EFD1791E95
:104910000D980870307800F0200040F0450007F84E
:10492000020D11A8C01BC01D02901398007800B1A1
:10493000012000EB0901019801EBE07102980144AC
:104940000398401A401E0390E00306D453462146C4
:10495000179A039800F05CF805441398007818B192
:104960005246179990476D1CE00323D553462146C4
:10497000179A039800F04CF805441BE0BBF1000FB8
:1049800007DB0098584504DD1098179910F80B00C4
:1049900001E0179930205246904701980BF1010B26
:1049A000401E05F10105019004D12E2052461799B1
:1049B00090476D1CB9F10001A9F10109DEDC05E0A9
:1049C00017F8010B5246179990476D1C0299481E23
:1049D00002900029F4DC53462146179A03989EE67C
:1049E0002D0000002B000000200000002DE9F04108
:1049F000044600251E461746880404D405E03946BF
:104A00002020B0476D1C641EF9D52846BDE8F08112
:104A10002DE9F041044600251E469046C80301D505
:104A2000302700E02027880404D505E041463846B9
:104A3000B0476D1C641EF9D52846BDE8F0814A6870
:104A4000002A06D00A68531C0B6010704868401E8C
:104A5000486070470A68531C0B6010707047000074
:104A60000149032008707047B8030020054A01215E
:104A7000117081887F2903D80022034801F001B812
:104A800070470000B8030020B00B0020014902204D
:104A900008707047B8030020014901204870704732
:104AA000B80300202DE9F04FFF4CDFF800E40526A5
:104AB0002DED0A8B83B02778FD48DFF8F8B3002589
:104AC00090F809C0837AC17990F80B90FA489BF866
:104AD00000A0BF1E00780A2F00F07F02F748007880
:104AE00022D2DFE807F0FDFC21051729C6FBFA56A4
:104AF000182000F0A3FD002001F08EF8002001F046
:104B000097F8002000F0D2FF401C7DD0EC480570E3
:104B1000062071E1EA48017801290AD001780229CA
:104B200072D0007803286FD003B0BDEC0A8BBDE8CB
:104B3000F08F057007205FE1DD4ABCF1210F63D1E2
:104B40008BF80030DF48E04BB9F1010F017083F8BA
:104B5000009000D91D70DD480088814254D2DC49A4
:104B6000002013189B7B41F82030401C0A28F8DBFA
:104B700001F05AFBD749086001F09EF9D04AC2E91A
:104B800002010320D070CD480178012088401071C7
:104B900012E1CB4FF878C0B33879C00702D03D712D
:104BA000082044E0002000F049FDCB48007820B107
:104BB00002280BD0012812D01FE0C849F8780988D4
:104BC000C0F10300484300F6B83010E0C349F8785C
:104BD0000988C0F10300484300F5617007E0BF4950
:104BE000F8780988C0F10300484300F2E240D7E9B1
:104BF0000212000410EB010855414FEA182040EA68
:104C0000056000F097FF01E031E015E0B44800884E
:104C100080B201F00DF8052000F0FEFF012000F049
:104C200045FF401C23D0387940083871022020709D
:104C3000F878401EF87077E7AA48D7E90251D0E922
:104C40000023A8185941000A40EA016000F072FFF1
:104C5000A548008880B200F0EBFF052000F0DCFFE3
:104C6000012000F023FF401C01D00920C4E0267081
:104C70005AE799480378994807689048007878433C
:104C800023B1022B0DD0012B16D022E000F6B83054
:104C900001048B48D0E90220891868414FF08762EF
:104CA00014E000F5617001048548D0E902208918FC
:104CB00068414FF4C80209E000F2E2400104804874
:104CC000D0E90220891868414FF09672891840F1A6
:104CD0000002080A40EA026003E0A2E08EE070E011
:104CE0005EE000F027FF814A75482030117881701E
:104CF000491C1170CA21C170DE2101719BF800109E
:104D000081726E490B786F49C3710A784271102124
:104D100041726749803101EBC20149680F0E477348
:104D20000F0C87730F0AC773017463490978DBB1ED
:104D300001F07F018174C572057361490022203141
:104D4000152001F058F801220021152001F064F827
:104D50005B4F7D70012000F0C1FF401C7ED0787851
:104D60000028FCD07D7027E041F08001817460490B
:104D70000B7856491F4609885943564B1B68B3FBAD
:104D8000F1FC01FB1C3C12FB07F24B10A2EB0C02E6
:104D90005B42934200DD0A44110AC1720273CCE700
:104DA00047480178012909D00178022903D0017808
:104DB00003297FF440AF05700B201DE00570032030
:104DC0001AE03B4DBCF1100FF6D15345F4D1A87C4D
:104DD00000F07F009042EFD16A7BAE7B120602EBBF
:104DE0000642EE7B434B2D7C02EB06222A4443F81D
:104DF00021204EF82100DFE7207095E63048017849
:104E000001290BD00178022902D001780329F4D1BD
:104E10000570394926700220087085E605700A2061
:104E2000EAE7234FBCF1230F18D1534516D1DFF821
:104E300094A09AF80030994210D1214D00EB8008DF
:104E40004EF82020B84485F8029098F81480DFF8D6
:104E50006CC04946904505D0012200E002E1824045
:104E60009143A970C9B2C140E046C8077DD001F0A6
:104E700038F8C5E9040101F01FF8C5E906010C483E
:104E800069460C3000F0D6FF98F8000001A900EB4D
:104E900080003844153000F0CDFF054802A91030DD
:104EA00000F0C8FF2AE00000CA020020680B0020C2
:104EB000B00B0020CB020020CE020020CF02002049
:104EC000B8030020AE030020AD030020D60200206E
:104ED000880B0020D8020020D1020020E40200202C
:104EE000E0020020F8020020DC020020AC030020D9
:104EF000D3020020480B0020CC020020019800992A
:104F0000D5F808802F698146AD69401AFBF7A8FBE8
:104F100041EC1B0BE81BFBF7A3FB41EC1A0B0299BE
:104F2000A1EB0900FBF79CFB41EC190BA7EB080078
:104F3000FBF796FB41EC180B53EC1A2B51EC1B0BB7
:104F4000FBF7F5F953EC192BFBF7F1F953EC182BA0
:104F5000FBF7EDF941EC1C0B53EC182B51EC190B42
:104F6000FBF78CFA41EC180B00E072E053EC1A2BC3
:104F700051EC1B0BFBF782FA53EC182BFBF778FA7A
:104F800053EC1C2BFBF7ECFAFBF796FBFBF757FBFC
:104F90009FED360B41EC180B53EC102BFBF7C4FBC9
:104FA00009D251EC180B9FED330B53EC102BFBF790
:104FB0005FFA41EC180B9FED310B51EC180B53ECE1
:104FC000102BFBF75BFA9FED2F1B53EC112BFBF71C
:104FD00055FA2E4D41EC100B85ED000BFBF7BCFB99
:104FE00000EE100A2A4801782A48007800F072FB87
:104FF00095ED001B51EC100B53EC112BFBF73BFA1A
:1050000041EC100B9FED241B85ED000B53EC112B95
:10501000FBF78AFB03D29FED220B85ED000B9FED82
:10502000220B53EC102B95ED000B51EC100BFBF702
:1050300025FAFBF722FB1E4A9AF8001002EBC10387
:1050400058609BF8003002F831301A4A42F82100CB
:1050500005E017484FF0FF3100EBC30041601648F0
:105060000121017000F00AFB01E600000000C0FF12
:10507000FFFFDF41000000000000E041FA48CE3BA6
:105080001835B13D0000001319DDB141B003002017
:10509000AF030020D2020020000000000088D340AF
:1050A000000000000000F0BF0000000000408F4042
:1050B000300C002000030020CC02002000EB810017
:1050C000C260704770B504460079A1688847014600
:1050D000E078420702D02288521C2280B1EBD01F18
:1050E0000CD04FF0005202EBB0104FEAB060C0F3AA
:1050F000C202E070032A04D361F3C71020F0380025
:10510000E070C0B200F007010025062972D2DFE886
:1051100001F0031D3D7BB199C0F38011B1EBD01FAD
:10512000A07820F0F0000ED1A070E16809B120460F
:1051300088472580A07820F00F00401CA070E07800
:105140007CE0E07070BD8030A07070BDC0F3801155
:10515000B1EBD01F09D0A07820F0F0001030A07083
:105160002169A9B3204688475FE02088C828ECD988
:10517000A07820F0F0005030A070216A09B12046DC
:105180008847E07820F00700401DDAE7C0F380117F
:10519000B1EBD01F1DD1A07820F0F000A070E16825
:1051A00009B120468847A078C143090706D04FF0CF
:1051B000805101EB30104FEA3070A070616909B185
:1051C000204688472580E07820F00700C01CB8E71B
:1051D0002BE020883C28B8D9A07800F00F010129E5
:1051E00002D0022907D044E020F0F0003030A07057
:1051F000A16905E03EE020F0F0004030A070E169D8
:1052000091B32046884734E0C0F38011B1EBD01F42
:1052100011D0A07820F0F0001030A070216909B101
:105220002046884720883C2823D22580E07820F03B
:105230000700801C85E721883C2986D920F00700DB
:10524000401C7EE7C0F38011B1EBD01FA07820F0A6
:10525000F0000AD16030A070616A00293FF475AF98
:105260002046BDE87040084703E01030A070216977
:10527000C6E7E07820F0070063E72DE9F0410D462E
:105280001E46174604462C21FBF746F8A07820F06E
:10529000F0008030A0703046A560A8470146E07855
:1052A00061F3C71067F38610E0702671BDE8F081E6
:1052B000074B19680A4605E0814202D14FF0FF30E2
:1052C0007047896A0029F7D1826218600020704710
:1052D000F8030020054810B5046803E02046FFF7F6
:1052E000F1FEA46A002CF9D110BD0000F8030020E3
:1052F00038B5134600220092486001F108040420EA
:1053000084E80D000A756B460A460548FBF7D0FC99
:10531000002803D104210348FCF7E1FB38BD00005D
:10532000CC06002000000240034802498160C160B1
:105330000161704780841E000000002030B5064DDA
:1053400000242B4622462821044801F0BBFD641CA2
:10535000282CF6DB30BD000080841E0000030020F6
:10536000FEF73EBB002801D000F074BF704710B5B7
:1053700000F078FF040001D000F060FF204610BD6F
:10538000114F0024114D661E07F120081048FCF74C
:10539000B9FBFFF787FB2879012813D00228F5D144
:1053A0002C710020414647F8206041F82060401CE5
:1053B000C0B20828F7D3EA78697906A02B6901F012
:1053C000BFF8E3E72C71E1E7480B0020C80200209A
:1053D0004C07002052414E47455F4552524F522CD8
:1053E000204944203D2025642C207262203D202548
:1053F000642C2072616E67655F74696D65203D2065
:1054000025640D0A000000002DE9F05F04460578D0
:10541000407977494FF00009C84631F8107060783C
:10542000401EC6B2042D76D0072D74D00020714ADC
:105430008246E3791068002B41696ED021F4800127
:105440004161217A01724169934621F440324261FF
:10545000217A4FF4403303EA01410A4342610021BB
:10546000042000F092FC3A4642F604012E2000F09F
:105470007FFC3046FEF7EEFD5F4F6049785D51F8E6
:10548000202007212B2000F080FC785D5C490A5C1D
:105490000B212B2000F088FC5A49282011F80A2003
:1054A0000B2100F081FC785D574951F820200C2138
:1054B000282000F06AFCE079544901EB8000A179D2
:1054C00030F811200221272000F052FC504804211E
:1054D00030F81620272000F04BFCE07910B3A078BC
:1054E000042825D020220621272000F041FC282274
:1054F0002621272000F058FC4648E17800EB0610F2
:1055000050F821200821272000F03FFC6089B0B12D
:1055100018E000E001E0012089E741F48001FF0884
:1055200041618EE764220621272000F021FCE3E799
:1055300010220621272000F01BFC1022D8E741F2A0
:105540004100608182B22021272000F011FC324FFF
:105550000C2123203A6800F018FC07EB46000421D8
:105560008288232000F004FCA07950B1E0792B4917
:105570000A5C0021212000F017FC4FF003094FF0D6
:10558000010805F00F00290740EA116062784FF426
:10559000402101EA824108434FF4401202EA0951D6
:1055A00008434FF4003202EA4841084321794FF0A2
:1055B000F86202EA81510843617940EAC162002140
:1055C0001F2000F0E2FBA07861780843E179000435
:1055D00040EA4132DBF800000021C260082000F000
:1055E000D4FBBDE8F05F422200210D2000F0DCBBBF
:1055F000C8820008EC0300204C8200086C8200087E
:10560000848200088A820008548200089882000878
:10561000A4820008A88200088C82000894820008F6
:1056200010B5044602780B212A2000F0BDFB626809
:105630000021BDE810401E2000F0A7BB10B50446B5
:105640000021042000F0E1F90A4908403CB120F4AF
:10565000FF7004F4FF71014341F0010201E020F00A
:1056600001020548002100684261BDE810400420A5
:1056700000F08BBBFFFF47F0EC03002070B500216A
:105680000E2000F0C2F90446FFF771FE0546002225
:1056900011460E2000F079FB402200210D2000F081
:1056A00083FB0A4A00210F2000F06FFB00F04CFB47
:1056B000224600210E2000F068FB2846FFF752FE2C
:1056C000034900200968887670BD0000F8FF272490
:1056D000EC03002070B505460E46002410EE100ABB
:1056E000FBF70FF89FED311B53EC112BFAF7C6FEB9
:1056F000FAF7C3FFFF2800DDFF202E49012EA1F19C
:1057000008020CD0042D2BD0072D29D0515D01EBC0
:10571000810202EBC101284A02EB410130E0042D75
:105720000AD0072D08D0515D01EB810202EB411137
:10573000204A083211440EE0495D1F4A01EB011175
:10574000883A02EB810100E0641C0A5D8242FBDBC7
:105750001C3C19E0641C0A5D8242FBDB173C13E031
:10576000495D01EB8102C2EB8111134A6832114499
:1057700000E0641C0A5D8242FBDB1E3C04E0641C0A
:105780000A5D8242FBDB113C00EE104AB8EEC00A13
:1057900010EE100AFAF7B5FF9FED081B53EC112B22
:1057A000FAF76CFE41EC100B70BD00000000000029
:1057B0000000104002830008268400087B14AE47D6
:1057C000E17A843F70B53D4C0022054621684A7459
:1057D0008A760A838A62CA620A634A6300F030F9F1
:1057E0003749884201D0881770BD00F053FA002075
:1057F000FEF750FC04220021242000F0D5FA1E20E0
:10580000FEF7C1FC216886B2300A48720420FEF718
:10581000BAFC10F0FF0F09D0022212212D2000F057
:10582000C3FA2068018B41F4805101830620FEF702
:10583000AAFC216808600720FEF7A5FC0146206845
:10584000416016F01F01017401D110210174C8B22A
:1058500000F017FAE80707D0FEF783FC2068018BF9
:1058600041F40061018309E00521362000F0BEF813
:1058700020F400720521362000F07AFA0120FEF7AC
:1058800009FC00220A212C2000F08EFA00210420BD
:1058900000F0BBF8216848610021262000F0B5F82F
:1058A00040F4A8220021262000F06FFA00222621D1
:1058B000362000F05DFA002070BD0000EC030020EF
:1058C0003001CADE70B500210F2000F09EF8454D72
:1058D00004464FF000062968C861400442D54FF4E1
:1058E000DE4200210F2000F050FA2868002180F8E5
:1058F0002460102000F07AF82B680146C0F30900FC
:105900001A7A0AB900F07F001884080405D593F8C4
:10591000240040F0010083F824000222002111201D
:10592000223300F091F820070FD5286890F8220064
:1059300080060AD4082200210F2000F026FA2868E9
:10594000C16921F00801C16186762868C16A09B180
:105950001C3088472868407C20B1012203210D209B
:1059600000F022FA200612D5F82200210F2000F0C4
:105970000CFA200706D52868807E18B1FFF77EFE56
:1059800000F0BBF82868816A09B11C30884714F41C
:10599000081F10D04FF4003200210F2000F0F5F95D
:1059A00028688676FFF76AFE00F0A7F82868016B82
:1059B00009B11C3088470C4A144211D000210F2035
:1059C00000F0E3F928688676FFF758FE00F095F8B6
:1059D0002868416B002903D0BDE870401C3008479F
:1059E00070BD0000EC0300200090052408B589B2CA
:1059F00080B26B46022200F027F89DF800009DF867
:105A0000011000EB012080B208BD38B5002489B236
:105A100080B26B46042200F017F803216846425C0E
:105A2000491E02EB0424FAD5204638BD08B589B2D8
:105A300080B26B46012200F007F89DF8000008BD17
:105A400000210846FFF7E1BF08B551B140F0400022
:105A50008DF80000C8B27F2907D88DF80100022018
:105A60000BE08DF80000012007E040F080008DF889
:105A70000100C8098DF802000320694601F0CEF943
:105A800008BD30B414460A462146034630BC1120F6
:105A9000FFF7DABF0346052200211520FFF7D4BF28
:105AA0000346052200211720FFF7CEBF70B504463C
:105AB000400701D400F048F94FF480752A46E0070A
:105AC00001D04FF4407200210D2000F051F9E007A1
:105AD00011D003210F20FFF7A9FF00070BD5FFF717
